:100000003DC071C056C055C054C053C052C051C04D
:1000100050C070C34EC04DC04CC04BC04AC049C058
:1000200048C020C246C009021200010100C03209C6
:10003000040000000000000012011001FF00000891
:10004000C016DC0500010102000116035100430047
:100050004D0020004C006F006700670065007200D3
:100060001803450078004500200049006E00730029
:1000700054006500630068000403090411241FBED6
:10008000CFE5D4E0DEBFCDBF10E0A0E6B0E0E2EE09
:10009000F9E002C005900D92A236B107D9F720E031
:1000A000A2E6B0E001C01D92A23BB207E1F789D3FE
:1000B00096C4A6CFA82FB92F80E090E041E050EA87
:1000C000609530E009C02D9182279795879510F0B3
:1000D00084279527305EC8F36F5FA8F30895EADFA1
:1000E0008D939D930895CF93CFB7CF93C395839B63
:1000F000E9F7839B09C0839B07C0839B05C0839B53
:1001000003C0839B01C0A1C0DF93C0919500DD2790
:10011000C456DF4F839B02C0DF91EBCF2F930F9329
:100120001F9300B32FEF03FB20F94F933F9310B3BE
:100130004FEF012703FB21F93BE031C04E7F012F38
:1001400010B3216028C0102F4D7F2260000000B343
:1001500029C04B7F2460012F000010B32BC010B3C7
:10016000477F28602AC04F7E00B320612CC04F7D9E
:1001700010B320622FC04F7B00B3206432C04227EF
:1001800000B349934FEF0000102713FB20F910B381
:100190001C70C9F1297F91F2012703FB21F900B3FB
:1001A000237F89F2315058F1102713FB22F910B345
:1001B000277E79F2012703FB23F92F7C81F200B31C
:1001C000102713FB24F92F7971F200C010B3012717
:1001D00003FB25F92F7359F200C000B3102713FB5E
:1001E00026F9223040F200C010B3012703FB27F9A3
:1001F000243028F64F77206810B30000F9CF10E4C0
:100200001ABF002717C03B503195C31BD04010E4E4
:100210001ABF0881033CE9F00B34D9F02091930018
:100220001981110F1213EDCF093641F10D3211F082
:10023000013E39F700939A003F914F911F910F9122
:100240002F91DF91CAB7C6FD51CFCF91CFBFCF91CC
:10025000189520919A00222379F310919800112388
:1002600011F5343012F130939800209394001091DE
:1002700095003BE0311B3093950017C0009198002A
:1002800001308CF40AE53091610034FD10C0009318
:100290006100C8E8D0E00FC02795A8F45150A9F438
:1002A000220F0000F9CF4AE503C042ED01C0432F01
:1002B000C4E1D0E032E011B31C60939A11BB02B3E9
:1002C00020E41CE05F93012756E002BB279520F451
:1002D000515021F4220FF9CF012756E000003B5A7C
:1002E00002BBD0F2279528F4515029F4220F0000C8
:1002F000F9CF012756E0279502BB20F4515021F495
:10030000220FF9CF012756E02991332302BB21F6B2
:10031000037F10919900110FC651D04002BB11F01C
:100320001093930010E41ABF086011B3137F402F9D
:10033000437F5F9100C000C002BB11BB42BB7CCFBA
:1003400086B7806286BF86B7806886BF08951092A0
:100350006900109268001092670010926600109277
:100360006500109264001092620080E090E0FC0151
:10037000E158FF4F1082019688309105C1F708952A
:1003800080E090E0FC01E158FF4F2081FC01E3593F
:10039000FF4F2083019688309105A1F70895CF93F0
:1003A000DF9300D0CDB7DEB79A838983FC018181CA
:1003B000813041F4CE01019690939700809396008E
:1003C00082E001C080E00F900F90DF91CF910895FF
:1003D000823021F0833029F0813031F5409368007C
:1003E00008956115710511F0FB010BC080E090E0EC
:1003F0002AEA841790F4FC01E158FF4F208301960C
:10040000F8CF8E2F861B841740F4DF01A61BB70B95
:100410008191A158BF4F8C93F4CF41504093680015
:1004200080917F00809369000895962FBA0131E092
:100430003093670080936A00209366009093650074
:10044000109263004091660080916500C1CF8230B8
:1004500021F0833021F0813021F4189A089583B17E
:1004600083B908951F920F920FB60F9211242F9304
:100470003F934F935F936F937F938F939F93AF932C
:10048000BF93EF93FF9381B1887F803609F4E9C071
:10049000E0F5803309F4E1C0D0F4883109F46CC090
:1004A00078F4883009F45EC0803109F012C180917F
:1004B0006A00880F83B9189880916500C8DF59C019
:1004C000803209F47AC0883209F481C002C18834CC
:1004D00009F485C038F4883309F4F5C0803409F490
:1004E000F2C0F7C0803509F48BC0883509F0F1C03F
:1004F000E091660080916800F0E0E81BF10983B1AB
:10050000E158FF4F80833CDFA8C0883909F4DAC086
:1005100090F4803809F4ABC038F4883609F4D3C0BD
:10052000803709F4D0C0D5C0883809F4BAC0803902
:1005300009F4C9C0CEC0803B09F4C4C048F4803A75
:1005400009F4ABC0883A09F0C4C010926200ABC095
:10055000803C09F4B7C0883C09F4B4C0883B09F07A
:10056000B8C0A1C080916A00880F83B9189883B180
:1005700083B986B78F7DA9C080916300811119C0AE
:100580008091650018C080916800882309F465C0D7
:10059000E091660080916800F0E0E81BF109E15805
:1005A000FF4F808180936900809168008150809323
:1005B00068008091690083B989C08091660081508C
:1005C0008093680080917F00809369000DC08091C6
:1005D00063008111D8CF81E0809363000EC08091C9
:1005E0006600815080936800809164008F5F8093E3
:1005F000640080916400853680F586B7806265C0AE
:1006000080916800823088F0E091660080916800F7
:10061000F0E0E81BF10983B1E158FF4F808380913E
:1006200068008150809368004EC0809168008130DE
:1006300009F04FC0E091660080916800F0E0E81B8F
:10064000F10983B1E158FF4F8083809168008150A8
:100650008093680086B78F7B38C079DE86B780616B
:1006600034C08091650081112EC08FEF28C0809129
:1006700062008F3F41F483B18093650080916500F3
:100680001092620020C0E09162000E2E000CFF0B61
:1006900083B1E158FF4F80830FC0809162008823AF
:1006A00091F06EDE0FC0E09162000E2E000CFF0B89
:1006B000E158FF4F808183B9809162008F5F809302
:1006C000620001C044DE86B7806486BF86B780685A
:1006D00086BFFF91EF91BF91AF919F918F917F91D5
:1006E0006F915F914F913F912F910F900FBE0F909F
:1006F0001F9018951F920F920FB60F9211242F93EF
:100700003F934F935F936F937F938F939F93AF9399
:10071000BF93EF93FF9324E040E050E061E081E578
:1007200084DE0EDE809167008111FCCF80916D0028
:1007300090916E00A0916F00B09170008093760050
:1007400090937700A0937800B093790024E040E084
:1007500050E061E082E569DEF3DD809167008111A0
:10076000FCCF80916D0090916E00A0916F00B091D0
:10077000700080937A0090937B00A0937C00B093EC
:100780007D0021E040E050E062E082E54EDED8DD11
:10079000809167008111FCCF80916D0080937E0075
:1007A000FF91EF91BF91AF919F918F917F916F9149
:1007B0005F914F913F912F910F900FBE0F901F901F
:1007C000189578949EE088E10FB6F894A89581BDBD
:1007D0000FBE91BDFDD08B9A8AEFA895EFE6F7E1A9
:1007E0003197F1F700C000008150B9F78B98A895B8
:1007F00001D0FDCFCF93DF9380919800835087FD88
:100800008FC090919500209194002D3209F086C000
:10081000883009F083C0CCE0D0E0C91BD109C456B0
:10082000DF4F83EC809388008AE58093610010920B
:100830006B002881822F807619F0CE01B0DD65C073
:100840008A8110929100998191110BC02F7119F436
:1008500081E0809391001092920021E930E082E0E3
:1008600050C0953019F4809399003DC09630A9F599
:100870009B81913019F488E390E004C0923041F4F8
:1008800086E290E0909397008093960082E121C0E9
:100890009330F1F4811108C088E790E090939700BD
:1008A0008093960084E015C0813041F480E690E0AA
:1008B000909397008093960088E10BC0823041F4BA
:1008C0008AE490E0909397008093960086E101C0BF
:1008D00080E090E490936B0018C0983079F09930E4
:1008E00031F480939B0021E930E080E00AC081E090
:1008F0009A3009F080E021E930E003C02BE930E0D4
:1009000081E030939700209396009F81911104C05D
:100910009E81981708F4892F8093600010929800A8
:100920008091610084FF47C0809160008F3F09F48F
:1009300042C0C82F893008F0C8E08C1B809360004B
:100940009091880088E8892780938800CC2339F12A
:10095000809196009091970020916B0026FF0BC02C
:10096000A9E8B0E0FC012C2F280F34913D9331967B
:100970002E13FBCF09C0DC01E9E8F0E02C2F2E0F8D
:100980003D9131932E13FCCF2FEF2C0F30E02F5FD2
:100990003F4F820F931F90939700809396006C2F88
:1009A00089E890E09CDBCC5FCC3019F08FEF80932E
:1009B0006000C093610084E190B39C7031F4815079
:1009C000D9F71092990010929300DF91CF9108957A
:1009D00085B7826085BF8BB780648BBF0895F8941C
:0209E000FFCF47
:0209E200FF5ABA
:00000001FF
