:10000000FEC032C117C116C115C114C113C112C13E
:1000100011C1CAC40FC10EC10DC10CC10BC10AC1AF
:1000200009C1F0C207C10DC3AEC4ADC4ACC4ABC4FA
:10003000AAC4A9C4A8C413C3A6C4A5C4A4C4A3C401
:10004000A2C4A1C4A0C41AC39EC49DC49CC49BC422
:100050009AC499C498C421C396C495C494C493C443
:1000600092C491C490C43AC38EC48DC48CC48BC452
:100070008AC489C488C464C386C485C484C483C450
:1000800082C481C480C464C37EC47DC47CC47BC478
:100090007AC479C478C463C376C475C474C473C4A1
:1000A00072C471C470C462C36EC46DC46CC46BC4CA
:1000B0006AC469C468C477C366C465C464C463C4DD
:1000C00062C461C460C4A6C35EC45DC45CC45BC4D6
:1000D0005AC459C458C4B2C356C455C454C453C4F2
:1000E00052C451C450C4B8C34EC44DC44CC44BC414
:1000F0004AC449C448C4B7C346C445C444C443C43D
:1001000042C441C440C43FC43EC43DC43CC43BC4DB
:100110003AC439C438C4AEC336C435C434C433C495
:1001200032C431C430C4C7C32EC42DC42CC42BC4A4
:100130002AC429C428C4C8C326C425C424C423C4CB
:1001400022C421C420C4C7C31EC41DC41CC41BC4F4
:100150001AC419C418C4C7C316C415C414C413C41C
:1001600012C411C410C4CCC30EC40DC40CC40BC43F
:100170000AC409C408C4DBC306C405C404C403C458
:1001800002C401C400C4DBC3FEC3FDC3FCC3FBC384
:10019000FAC3F9C3F8C3E8C3F6C3F5C3F4C3F3C3A2
:1001A000F2C3F1C3F0C3E8C309021200010100C0A9
:1001B0003209040000000000000012011001FF00DD
:1001C0000008C016DC050001010200011603510001
:1001D00043004D0020004C006F0067006700650081
:1001E00072001803450078004500200049006E00A9
:1001F00073005400650063006800040309041124BF
:100200001FBECFE5D4E0DEBFCDBF10E0A0E6B0E07A
:10021000E6ECFCE002C005900D92A236B107D9F7DA
:1002200020E0A2E6B0E001C01D92A23BB207E1F7D8
:1002300022D447C5E5CEA82FB92F80E090E041E059
:1002400050EA609530E009C02D91822797958795F7
:1002500010F084279527305EC8F36F5FA8F30895E8
:10026000EADF8D939D930895CF93CFB7CF93C39536
:10027000839BE9F7839B09C0839B07C0839B05C0D1
:10028000839B03C0839B01C0A1C0DF93C0919500F5
:10029000DD27C456DF4F839B02C0DF91EBCF2F9346
:1002A0000F931F9300B32FEF03FB20F94F933F935E
:1002B00010B34FEF012703FB21F93BE031C04E7F24
:1002C000012F10B3216028C0102F4D7F2260000045
:1002D00000B329C04B7F2460012F000010B32BC056
:1002E00010B3477F28602AC04F7E00B320612CC026
:1002F0004F7D10B320622FC04F7B00B3206432C00B
:10030000422700B349934FEF0000102713FB20F959
:1003100010B31C70C9F1297F91F2012703FB21F969
:1003200000B3237F89F2315058F1102713FB22F9D3
:1003300010B3277E79F2012703FB23F92F7C81F28A
:1003400000B3102713FB24F92F7971F200C010B30A
:10035000012703FB25F92F7359F200C000B31027C2
:1003600013FB26F9223040F200C010B3012703FB33
:1003700027F9243028F64F77206810B30000F9CF12
:1003800010E41ABF002717C03B503195C31BD04063
:1003900010E41ABF0881033CE9F00B34D9F0209136
:1003A00093001981110F1213EDCF093641F10D326F
:1003B00011F0013E39F700939A003F914F911F9140
:1003C0000F912F91DF91CAB7C6FD51CFCF91CFBF0B
:1003D000CF91189520919A00222379F310919800DB
:1003E000112311F5343012F13093980020939400CA
:1003F000109195003BE0311B3093950017C00091A0
:10040000980001308CF40AE53091610034FD10C091
:1004100000936100C8E8D0E00FC02795A8F45150C0
:10042000A9F4220F0000F9CF4AE503C042ED01C054
:10043000432FC4E1D0E032E011B31C60939A11BBAA
:1004400002B320E41CE05F93012756E002BB27952E
:1004500020F4515021F4220FF9CF012756E000007B
:100460003B5A02BBD0F2279528F4515029F4220FB1
:100470000000F9CF012756E0279502BB20F4515028
:1004800021F4220FF9CF012756E02991332302BB33
:1004900021F6037F10919900110FC651D04002BB85
:1004A00011F01093930010E41ABF086011B3137F8A
:1004B000402F437F5F9100C000C002BB11BB42BB15
:1004C0007CCF86B7806286BF86B7806886BF089576
:1004D00010926900109268001092670010926600F6
:1004E00010926500109264001092620080E090E02B
:1004F000FC01E158FF4F1082019688309105C1F749
:10050000089580E090E0FC01E158FF4F2081FC015C
:10051000E359FF4F2083019688309105A1F7089594
:10052000CF93DF9300D0CDB7DEB79A838983FC01E8
:100530008181813041F4CE010196909397008093A0
:10054000960082E001C080E00F900F90DF91CF9184
:100550000895823039F0833041F0813091F5409335
:10056000680008954093680008956115710519F4B5
:10057000411116C01FC0442359F0FB0180E090E0F8
:100580002191DC01A158BF4F2C9301968417C0F331
:1005900041504093680080917F00809369000895E6
:1005A00080E090E02AEAFC01E158FF4F20830196A9
:1005B0008417C8F341504093680080917F00809376
:1005C00069000895962FBA0131E030936700809357
:1005D0006A0020936600909365001092630040913A
:1005E000660080916500B5DF0895823031F0833078
:1005F00031F0813031F4189A0895189A089583B132
:1006000083B908951F920F920FB60F9211242F9362
:100610003F934F935F936F937F938F939F93AF938A
:10062000BF93EF93FF9381B1E82FE87F8E2F90E087
:10063000FC013897E13CF10508F0A5C1ED5EFF4FE4
:10064000099480916A00880F83B9189883B183B99F
:1006500086B78F7D86BF86B7806886BF94C180913C
:100660006A00880F83B9189880916500BEDF86B74D
:100670008F7D86BF86B7806886BF85C18091630005
:10068000811104C08091650083B903C08091690025
:1006900083B986B7806886BF76C180916600815035
:1006A0008093680080917F0080936900809164004E
:1006B0008F5F8093640080916400853640F008DF8E
:1006C00086B7806186BF86B7806886BF5CC186B703
:1006D000806286BF86B7806886BF55C180916300FF
:1006E00081110AC081E08093630086B7806286BF73
:1006F00086B7806886BF47C180916800811108C0B5
:10070000E7DE86B7806186BF86B7806886BF3BC15B
:10071000E091660080916800F0E0E81BF109E15883
:10072000FF4F8081809369008091680081508093A1
:1007300068008091690083B986B7806886BF23C14D
:10074000C7DE86B7806186BF86B7806886BF1BC15B
:1007500086B7806486BF86B7806886BF14C186B7B7
:10076000806486BF86B7806886BF0DC180916600B1
:10077000815080936800809164008F5F8093640053
:1007800080916400853640F0A3DE86B7806186BF25
:1007900086B7806886BFF7C086B7806286BF86B797
:1007A000806886BFF0C0809168008230B8F0E09128
:1007B000660080916800F0E0E81BF10983B1E15820
:1007C000FF4F80838091680081508093680086B7D6
:1007D000806486BF86B7806886BFD5C08091680078
:1007E000813009F0D0C0E091660080916800F0E0AF
:1007F000E81BF10983B1E158FF4F808380916800C5
:1008000081508093680086B78F7B86BF86B78068EB
:1008100086BFB9C0E091660080916800F0E0E81BF7
:10082000F10983B1E158FF4F80836BDE51DE86B75B
:10083000806186BF86B7806886BFA5C0809165004D
:10084000811103C08FEF8093620086B7806486BFFA
:1008500086B7806886BF97C086B7806486BF86B734
:10086000806886BF90C086B7806486BF86B7806880
:1008700086BF89C0809162008F3F41F483B180932D
:10088000650080916500109262000EC0E0916200E8
:100890000E2E000CFF0B83B1E158FF4F8083809137
:1008A00062008F5F8093620086B7806486BF86B7E0
:1008B000806886BF68C025DE0BDE86B7806486BF91
:1008C00086B7806886BF5FC086B7806486BF86B7FC
:1008D000806886BF58C0FCDD86B7806486BF86B757
:1008E000806886BF50C080916200882311F009DEC5
:1008F000EFDD86B7806486BF86B7806886BF43C059
:1009000010926200E09162000E2E000CFF0BE15885
:10091000FF4F808183B9809162008F5F8093620076
:1009200086B7806486BF86B7806886BF2CC0D0DD5E
:1009300086B7806486BF86B7806886BF24C0E09192
:1009400062000E2E000CFF0BE158FF4F808183B92F
:10095000809162008F5F8093620086B7806486BF5B
:1009600086B7806886BF0FC0B3DD86B7806486BF58
:1009700086B7806886BF07C0ABDD86B7806486BF58
:1009800086B7806886BFFF91EF91BF91AF919F912D
:100990008F917F916F915F914F913F912F910F9028
:1009A0000FBE0F901F9018951F920F920FB60F92C7
:1009B00011242F933F934F935F936F937F938F9364
:1009C0009F93AF93BF93EF93FF9324E040E050E0F9
:1009D00061E081E5F7DD75DD809167008111FCCF75
:1009E00080916D0090916E00A0916F00B0917000A9
:1009F0008093760090937700A0937800B09379006D
:100A000024E040E050E061E082E5DCDD5ADD8091E9
:100A100067008111FCCF80916D0090916E00A091D4
:100A20006F00B091700080937A0090937B00A09348
:100A30007C00B0937D0021E040E050E062E082E580
:100A4000C1DD3FDD809167008111FCCF80916D0099
:100A500080937E00FF91EF91BF91AF919F918F9115
:100A60007F916F915F914F913F912F910F900FBEAA
:100A70000F901F90189578949EE088E10FB6F89437
:100A8000A89581BD0FBE91BD15D18B9A8AEFA8950F
:100A9000EFE6F7E13197F1F700C000008150B9F7B8
:100AA0008B98A89501D0FDCFCF93DF9380919800CC
:100AB00083500AF499C020919500909194009D3242
:100AC00009F090C0883009F08DC0CCE0D0E0C21BA6
:100AD000D109C456DF4F83EC809388008AE5809368
:100AE000610010926B008881982F907619F0CE01EA
:100AF00017DD6FC02A8110929100998191110BC06E
:100B00008F7119F481E0809391001092920021E995
:100B100030E082E05AC0953031F42093990021E909
:100B200030E080E052C09630E1F58B81813041F4B5
:100B30008AEB91E0909397008093960082E12DC01C
:100B4000823041F488EA91E0909397008093960078
:100B500082E123C08330F1F4211108C08AEF91E0D3
:100B6000909397008093960084E017C0213041F461
:100B700082EE91E0909397008093960088E10DC0FB
:100B8000223051F48CEC91E0909397008093960082
:100B900086E103C080E001C080E090E490936B00A8
:100BA00018C0983079F0993031F420939B0021E9F6
:100BB00030E080E00AC081E09A3009F080E021E96D
:100BC00030E003C02BE930E081E0309397002093C0
:100BD00096009F81911104C09E81981708F4892F77
:100BE00080936000109298008091610084FF4BC058
:100BF000809160008F3F09F446C0C82F893008F00B
:100C0000C8E08C1B80936000E8E8F0E0908188E801
:100C100089278083CC2309F444C020919600309129
:100C2000970080916B0086FF10C0A9E8B0E0F90141
:100C30008C2F94919D9331968150D9F78FEF8C0F23
:100C400090E00196280F391F0EC0D901E9E8F0E0C5
:100C50008C2F9D9191938150E1F78FEF8C0F90E055
:100C60000196280F391F30939700209396006C2F20
:100C700089E890E0F5DACC5FCC3018F48FEF809300
:100C80006000C093610080B38C7089F493E180B3FD
:100C90008C7069F49150D9F71092990010929300DA
:100CA00006C06C2F89E890E0DBDACC5FE7CFDF91FC
:100CB000CF91089585B7826085BF8BB780648BBF65
:060CC0000895F894FFCF37
:020CC600FF5AD3
:00000001FF
